{
  "_format": "hh-sol-artifact-1",
  "contractName": "Factory",
  "sourceName": "contracts/Escrow.sol",
  "abi": [
    {
      "inputs": [],
      "stateMutability": "nonpayable",
      "type": "constructor"
    },
    {
      "inputs": [
        {
          "internalType": "uint256",
          "name": "",
          "type": "uint256"
        }
      ],
      "name": "allEscrowContracts",
      "outputs": [
        {
          "internalType": "address",
          "name": "",
          "type": "address"
        }
      ],
      "stateMutability": "view",
      "type": "function"
    },
    {
      "inputs": [],
      "name": "createContract",
      "outputs": [],
      "stateMutability": "nonpayable",
      "type": "function"
    },
    {
      "inputs": [],
      "name": "escrowCount",
      "outputs": [
        {
          "internalType": "uint256",
          "name": "",
          "type": "uint256"
        }
      ],
      "stateMutability": "view",
      "type": "function"
    },
    {
      "inputs": [],
      "name": "factoryOwner",
      "outputs": [
        {
          "internalType": "address",
          "name": "",
          "type": "address"
        }
      ],
      "stateMutability": "view",
      "type": "function"
    },
    {
      "inputs": [],
      "name": "getAllContracts",
      "outputs": [
        {
          "internalType": "address[]",
          "name": "",
          "type": "address[]"
        }
      ],
      "stateMutability": "view",
      "type": "function"
    },
    {
      "inputs": [
        {
          "internalType": "uint256",
          "name": "queryID",
          "type": "uint256"
        }
      ],
      "name": "getByID",
      "outputs": [
        {
          "internalType": "address",
          "name": "",
          "type": "address"
        }
      ],
      "stateMutability": "view",
      "type": "function"
    }
  ],
  "bytecode": "0x608060405234801561001057600080fd5b5033600260006101000a81548173ffffffffffffffffffffffffffffffffffffffff021916908373ffffffffffffffffffffffffffffffffffffffff1602179055506000600181905550612605806100696000396000f3fe608060405234801561001057600080fd5b50600436106100625760003560e01c806318d3ce9614610067578063412a5a6d146100855780634273601c1461008f5780634df2c5f5146100ad578063675ac67a146100dd57806374fb0aa7146100fb575b600080fd5b61006f61012b565b60405161007c9190610440565b60405180910390f35b61008d6101b9565b005b610097610291565b6040516100a49190610471565b60405180910390f35b6100c760048036038101906100c291906104c7565b6102b7565b6040516100d49190610471565b60405180910390f35b6100e56102f6565b6040516100f29190610503565b60405180910390f35b610115600480360381019061011091906104c7565b6102fc565b6040516101229190610471565b60405180910390f35b606060008054806020026020016040519081016040528092919081815260200182805480156101af57602002820191906000526020600020905b8160009054906101000a900473ffffffffffffffffffffffffffffffffffffffff1673ffffffffffffffffffffffffffffffffffffffff1681526020019060010190808311610165575b5050505050905090565b6000600260009054906101000a900473ffffffffffffffffffffffffffffffffffffffff16600160008154809291906101f19061054d565b9190505560405161020190610343565b61020c929190610595565b604051809103906000f080158015610228573d6000803e3d6000fd5b5090506000819080600181540180825580915050600190039060005260206000200160009091909190916101000a81548173ffffffffffffffffffffffffffffffffffffffff021916908373ffffffffffffffffffffffffffffffffffffffff16021790555050565b600260009054906101000a900473ffffffffffffffffffffffffffffffffffffffff1681565b600081815481106102c757600080fd5b906000526020600020016000915054906101000a900473ffffffffffffffffffffffffffffffffffffffff1681565b60015481565b6000808281548110610311576103106105be565b5b9060005260206000200160009054906101000a900473ffffffffffffffffffffffffffffffffffffffff169050919050565b611fe2806105ee83390190565b600081519050919050565b600082825260208201905092915050565b6000819050602082019050919050565b600073ffffffffffffffffffffffffffffffffffffffff82169050919050565b60006103a78261037c565b9050919050565b6103b78161039c565b82525050565b60006103c983836103ae565b60208301905092915050565b6000602082019050919050565b60006103ed82610350565b6103f7818561035b565b93506104028361036c565b8060005b8381101561043357815161041a88826103bd565b9750610425836103d5565b925050600181019050610406565b5085935050505092915050565b6000602082019050818103600083015261045a81846103e2565b905092915050565b61046b8161039c565b82525050565b60006020820190506104866000830184610462565b92915050565b600080fd5b6000819050919050565b6104a481610491565b81146104af57600080fd5b50565b6000813590506104c18161049b565b92915050565b6000602082840312156104dd576104dc61048c565b5b60006104eb848285016104b2565b91505092915050565b6104fd81610491565b82525050565b600060208201905061051860008301846104f4565b92915050565b7f4e487b7100000000000000000000000000000000000000000000000000000000600052601160045260246000fd5b600061055882610491565b91507fffffffffffffffffffffffffffffffffffffffffffffffffffffffffffffffff820361058a5761058961051e565b5b600182019050919050565b60006040820190506105aa6000830185610462565b6105b760208301846104f4565b9392505050565b7f4e487b7100000000000000000000000000000000000000000000000000000000600052603260045260246000fdfe60806040526000600c60006101000a81548160ff021916908360058111156200002d576200002c620000bd565b5b02179055503480156200003f57600080fd5b5060405162001fe238038062001fe2833981810160405281019062000065919062000191565b81600360006101000a81548173ffffffffffffffffffffffffffffffffffffffff021916908373ffffffffffffffffffffffffffffffffffffffff1602179055508060068190555060006007819055505050620001d8565b7f4e487b7100000000000000000000000000000000000000000000000000000000600052602160045260246000fd5b600080fd5b600073ffffffffffffffffffffffffffffffffffffffff82169050919050565b60006200011e82620000f1565b9050919050565b620001308162000111565b81146200013c57600080fd5b50565b600081519050620001508162000125565b92915050565b6000819050919050565b6200016b8162000156565b81146200017757600080fd5b50565b6000815190506200018b8162000160565b92915050565b60008060408385031215620001ab57620001aa620000ec565b5b6000620001bb858286016200013f565b9250506020620001ce858286016200017a565b9150509250929050565b611dfa80620001e86000396000f3fe6080604052600436106101f25760003560e01c8063904eee231161010d578063d45b0007116100a0578063e3c9236d1161006f578063e3c9236d146106f5578063e9d13b5714610720578063f73a3d1f1461074b578063f973822e14610776578063fe74edbd146107a157610289565b8063d45b000714610671578063d55a17c014610688578063daef173f146106b3578063e1e417c4146106ca57610289565b8063bc49308f116100dc578063bc49308f146105c5578063bcade28d146105f0578063bf5c98221461061b578063d3f3f5ea1461064657610289565b8063904eee231461051b5780639529387c14610546578063a9e169131461055d578063b02c43d01461058857610289565b8063431702561161018557806369e154041161015457806369e154041461046f5780637150d8ae1461049a578063788d6b91146104c55780637fd6f15c146104f057610289565b806343170256146103c357806347b2c736146103ee57806357e871e714610419578063674759e91461044457610289565b8063260ace31116101c1578063260ace311461033a5780633b5dd202146103635780633eb5241d1461038e57806342cbb15c1461039857610289565b806308551a531461028e5780630a1792cc146102b9578063183f66b6146102e45780631b6701911461030f57610289565b3661028957600260009054906101000a900473ffffffffffffffffffffffffffffffffffffffff1673ffffffffffffffffffffffffffffffffffffffff163373ffffffffffffffffffffffffffffffffffffffff1614610287576040517f08c379a000000000000000000000000000000000000000000000000000000000815260040161027e90611772565b60405180910390fd5b005b600080fd5b34801561029a57600080fd5b506102a36107cc565b6040516102b091906117d3565b60405180910390f35b3480156102c557600080fd5b506102ce6107f2565b6040516102db9190611809565b60405180910390f35b3480156102f057600080fd5b506102f9610805565b6040516103069190611809565b60405180910390f35b34801561031b57600080fd5b50610324610818565b604051610331919061189b565b60405180910390f35b34801561034657600080fd5b50610361600480360381019061035c919061191d565b61082b565b005b34801561036f57600080fd5b50610378610ad3565b6040516103859190611993565b60405180910390f35b610396610add565b005b3480156103a457600080fd5b506103ad610d29565b6040516103ba9190611993565b60405180910390f35b3480156103cf57600080fd5b506103d8610d31565b6040516103e591906117d3565b60405180910390f35b3480156103fa57600080fd5b50610403610d39565b6040516104109190611993565b60405180910390f35b34801561042557600080fd5b5061042e610d3f565b60405161043b9190611993565b60405180910390f35b34801561045057600080fd5b50610459610d45565b6040516104669190611993565b60405180910390f35b34801561047b57600080fd5b50610484610d4b565b6040516104919190611993565b60405180910390f35b3480156104a657600080fd5b506104af610d51565b6040516104bc91906117d3565b60405180910390f35b3480156104d157600080fd5b506104da610d77565b6040516104e79190611993565b60405180910390f35b3480156104fc57600080fd5b50610505610d81565b6040516105129190611993565b60405180910390f35b34801561052757600080fd5b50610530610d87565b60405161053d9190611809565b60405180910390f35b34801561055257600080fd5b5061055b610daf565b005b34801561056957600080fd5b50610572610efc565b60405161057f9190611809565b60405180910390f35b34801561059457600080fd5b506105af60048036038101906105aa91906119ae565b610f24565b6040516105bc9190611993565b60405180910390f35b3480156105d157600080fd5b506105da610f48565b6040516105e79190611993565b60405180910390f35b3480156105fc57600080fd5b50610605610f4e565b6040516106129190611809565b60405180910390f35b34801561062757600080fd5b50610630610f76565b60405161063d9190611993565b60405180910390f35b34801561065257600080fd5b5061065b610f80565b6040516106689190611a99565b60405180910390f35b34801561067d57600080fd5b50610686610fd8565b005b34801561069457600080fd5b5061069d611166565b6040516106aa9190611809565b60405180910390f35b3480156106bf57600080fd5b506106c8611179565b005b3480156106d657600080fd5b506106df611304565b6040516106ec91906117d3565b60405180910390f35b34801561070157600080fd5b5061070a61132a565b6040516107179190611809565b60405180910390f35b34801561072c57600080fd5b50610735611347565b6040516107429190611809565b60405180910390f35b34801561075757600080fd5b5061076061135a565b60405161076d9190611809565b60405180910390f35b34801561078257600080fd5b5061078b611382565b604051610798919061189b565b60405180910390f35b3480156107ad57600080fd5b506107b6611399565b6040516107c39190611993565b60405180910390f35b600160009054906101000a900473ffffffffffffffffffffffffffffffffffffffff1681565b600860019054906101000a900460ff1681565b600860009054906101000a900460ff1681565b600c60009054906101000a900460ff1681565b600360009054906101000a900473ffffffffffffffffffffffffffffffffffffffff1673ffffffffffffffffffffffffffffffffffffffff163373ffffffffffffffffffffffffffffffffffffffff16146108bb576040517f08c379a00000000000000000000000000000000000000000000000000000000081526004016108b290611b07565b60405180910390fd5b3373ffffffffffffffffffffffffffffffffffffffff168473ffffffffffffffffffffffffffffffffffffffff161415801561092357503373ffffffffffffffffffffffffffffffffffffffff168373ffffffffffffffffffffffffffffffffffffffff1614155b61092c57600080fd5b60016006600082825461093f9190611b56565b9250508190555083600160006101000a81548173ffffffffffffffffffffffffffffffffffffffff021916908373ffffffffffffffffffffffffffffffffffffffff16021790555082600260006101000a81548173ffffffffffffffffffffffffffffffffffffffff021916908373ffffffffffffffffffffffffffffffffffffffff16021790555081600581905550806004819055506001600c60006101000a81548160ff021916908360058111156109fc576109fb611824565b5b02179055506000806000600160009054906101000a900473ffffffffffffffffffffffffffffffffffffffff1673ffffffffffffffffffffffffffffffffffffffff1673ffffffffffffffffffffffffffffffffffffffff168152602001908152602001600020819055506000806000600260009054906101000a900473ffffffffffffffffffffffffffffffffffffffff1673ffffffffffffffffffffffffffffffffffffffff1673ffffffffffffffffffffffffffffffffffffffff1681526020019081526020016000208190555050505050565b6000600b54905090565b4360045411610b21576040517f08c379a0000000000000000000000000000000000000000000000000000000008152600401610b1890611bf8565b60405180910390fd5b600260009054906101000a900473ffffffffffffffffffffffffffffffffffffffff1673ffffffffffffffffffffffffffffffffffffffff163373ffffffffffffffffffffffffffffffffffffffff1614610bb1576040517f08c379a0000000000000000000000000000000000000000000000000000000008152600401610ba890611772565b60405180910390fd5b34600080600260009054906101000a900473ffffffffffffffffffffffffffffffffffffffff1673ffffffffffffffffffffffffffffffffffffffff1673ffffffffffffffffffffffffffffffffffffffff16815260200190815260200160002054610c1d9190611b56565b600080600260009054906101000a900473ffffffffffffffffffffffffffffffffffffffff1673ffffffffffffffffffffffffffffffffffffffff1673ffffffffffffffffffffffffffffffffffffffff1681526020019081526020016000208190555060093490806001815401808255809150506001900390600052602060002001600090919091909150553460076000828254610cbc9190611b56565b925050819055506002600c60006101000a81548160ff02191690836005811115610ce957610ce8611824565b5b02179055507fe1fffcc4923d04b559f4d29a8bfc6cda04eb5b0d3c460751c2402c5c5cc9109c3334604051610d1f929190611c18565b60405180910390a1565b600043905090565b600030905090565b600b5481565b60045481565b60075481565b600a5481565b600260009054906101000a900473ffffffffffffffffffffffffffffffffffffffff1681565b6000600654905090565b60055481565b6000600860029054906101000a900460ff1615610da75760019050610dac565b600090505b90565b60036005811115610dc357610dc2611824565b5b600c60009054906101000a900460ff166005811115610de557610de4611824565b5b1480610e235750600580811115610dff57610dfe611824565b5b600c60009054906101000a900460ff166005811115610e2157610e20611824565b5b145b610e62576040517f08c379a0000000000000000000000000000000000000000000000000000000008152600401610e5990611c8d565b60405180910390fd5b600360009054906101000a900473ffffffffffffffffffffffffffffffffffffffff1673ffffffffffffffffffffffffffffffffffffffff163373ffffffffffffffffffffffffffffffffffffffff1614610ef2576040517f08c379a0000000000000000000000000000000000000000000000000000000008152600401610ee990611b07565b60405180910390fd5b610efa6113a1565b565b6000600860039054906101000a900460ff1615610f1c5760019050610f21565b600090505b90565b60098181548110610f3457600080fd5b906000526020600020016000915090505481565b60065481565b6000600860019054906101000a900460ff1615610f6e5760019050610f73565b600090505b90565b6000600a54905090565b60606009805480602002602001604051908101604052809291908181526020018280548015610fce57602002820191906000526020600020905b815481526020019060010190808311610fba575b5050505050905090565b436004541161101c576040517f08c379a000000000000000000000000000000000000000000000000000000000815260040161101390611bf8565b60405180910390fd5b600160009054906101000a900473ffffffffffffffffffffffffffffffffffffffff1673ffffffffffffffffffffffffffffffffffffffff163373ffffffffffffffffffffffffffffffffffffffff1603611091576001600860026101000a81548160ff021916908315150217905550611103565b600260009054906101000a900473ffffffffffffffffffffffffffffffffffffffff1673ffffffffffffffffffffffffffffffffffffffff163373ffffffffffffffffffffffffffffffffffffffff1603611102576001600860036101000a81548160ff0219169083151502179055505b5b600860029054906101000a900460ff16801561112b5750600860039054906101000a900460ff165b15611164576005600c60006101000a81548160ff0219169083600581111561115657611155611824565b5b02179055506111636113dc565b5b565b600860029054906101000a900460ff1681565b600160009054906101000a900473ffffffffffffffffffffffffffffffffffffffff1673ffffffffffffffffffffffffffffffffffffffff163373ffffffffffffffffffffffffffffffffffffffff16036111ee576001600860006101000a81548160ff021916908315150217905550611260565b600260009054906101000a900473ffffffffffffffffffffffffffffffffffffffff1673ffffffffffffffffffffffffffffffffffffffff163373ffffffffffffffffffffffffffffffffffffffff160361125f576001600860016101000a81548160ff0219169083151502179055505b5b600860009054906101000a900460ff1680156112885750600860019054906101000a900460ff165b15611302576003600c60006101000a81548160ff021916908360058111156112b3576112b2611824565b5b02179055506112c0611447565b6112c86114d8565b7fe45e63303e8639704d39bc5471f075dcad871f77f93d978e3393e58cfdd5d98943476040516112f9929190611cad565b60405180910390a15b565b600360009054906101000a900473ffffffffffffffffffffffffffffffffffffffff1681565b600043600454111561133f5760009050611344565b600190505b90565b600860039054906101000a900460ff1681565b6000600860009054906101000a900460ff161561137a576001905061137f565b600090505b90565b6000600c60009054906101000a900460ff16905090565b600047905090565b600360009054906101000a900473ffffffffffffffffffffffffffffffffffffffff1673ffffffffffffffffffffffffffffffffffffffff16ff5b600260009054906101000a900473ffffffffffffffffffffffffffffffffffffffff1673ffffffffffffffffffffffffffffffffffffffff166108fc479081150290604051600060405180830381858888f19350505050158015611444573d6000803e3d6000fd5b50565b600060646005546114589190611d05565b476114639190611d36565b905080600a81905550600360009054906101000a900473ffffffffffffffffffffffffffffffffffffffff1673ffffffffffffffffffffffffffffffffffffffff166108fc829081150290604051600060405180830381858888f193505050501580156114d4573d6000803e3d6000fd5b5050565b47600080600260009054906101000a900473ffffffffffffffffffffffffffffffffffffffff1673ffffffffffffffffffffffffffffffffffffffff1673ffffffffffffffffffffffffffffffffffffffff168152602001908152602001600020546115449190611d90565b600080600260009054906101000a900473ffffffffffffffffffffffffffffffffffffffff1673ffffffffffffffffffffffffffffffffffffffff1673ffffffffffffffffffffffffffffffffffffffff1681526020019081526020016000208190555047600080600160009054906101000a900473ffffffffffffffffffffffffffffffffffffffff1673ffffffffffffffffffffffffffffffffffffffff1673ffffffffffffffffffffffffffffffffffffffff168152602001908152602001600020546116149190611b56565b600080600160009054906101000a900473ffffffffffffffffffffffffffffffffffffffff1673ffffffffffffffffffffffffffffffffffffffff1673ffffffffffffffffffffffffffffffffffffffff168152602001908152602001600020819055506004600c60006101000a81548160ff0219169083600581111561169e5761169d611824565b5b021790555047600b81905550600160009054906101000a900473ffffffffffffffffffffffffffffffffffffffff1673ffffffffffffffffffffffffffffffffffffffff166108fc479081150290604051600060405180830381858888f19350505050158015611712573d6000803e3d6000fd5b50565b600082825260208201905092915050565b7f6f6e6c7920627579657200000000000000000000000000000000000000000000600082015250565b600061175c600a83611715565b915061176782611726565b602082019050919050565b6000602082019050818103600083015261178b8161174f565b9050919050565b600073ffffffffffffffffffffffffffffffffffffffff82169050919050565b60006117bd82611792565b9050919050565b6117cd816117b2565b82525050565b60006020820190506117e860008301846117c4565b92915050565b60008115159050919050565b611803816117ee565b82525050565b600060208201905061181e60008301846117fa565b92915050565b7f4e487b7100000000000000000000000000000000000000000000000000000000600052602160045260246000fd5b6006811061186457611863611824565b5b50565b600081905061187582611853565b919050565b600061188582611867565b9050919050565b6118958161187a565b82525050565b60006020820190506118b0600083018461188c565b92915050565b600080fd5b6118c4816117b2565b81146118cf57600080fd5b50565b6000813590506118e1816118bb565b92915050565b6000819050919050565b6118fa816118e7565b811461190557600080fd5b50565b600081359050611917816118f1565b92915050565b60008060008060808587031215611937576119366118b6565b5b6000611945878288016118d2565b9450506020611956878288016118d2565b935050604061196787828801611908565b925050606061197887828801611908565b91505092959194509250565b61198d816118e7565b82525050565b60006020820190506119a86000830184611984565b92915050565b6000602082840312156119c4576119c36118b6565b5b60006119d284828501611908565b91505092915050565b600081519050919050565b600082825260208201905092915050565b6000819050602082019050919050565b611a10816118e7565b82525050565b6000611a228383611a07565b60208301905092915050565b6000602082019050919050565b6000611a46826119db565b611a5081856119e6565b9350611a5b836119f7565b8060005b83811015611a8c578151611a738882611a16565b9750611a7e83611a2e565b925050600181019050611a5f565b5085935050505092915050565b60006020820190508181036000830152611ab38184611a3b565b905092915050565b7f6f6e6c7920657363726f77206f776e6572000000000000000000000000000000600082015250565b6000611af1601183611715565b9150611afc82611abb565b602082019050919050565b60006020820190508181036000830152611b2081611ae4565b9050919050565b7f4e487b7100000000000000000000000000000000000000000000000000000000600052601160045260246000fd5b6000611b61826118e7565b9150611b6c836118e7565b9250827fffffffffffffffffffffffffffffffffffffffffffffffffffffffffffffffff03821115611ba157611ba0611b27565b5b828201905092915050565b7f657363726f772074696d652068617320656e6465640000000000000000000000600082015250565b6000611be2601583611715565b9150611bed82611bac565b602082019050919050565b60006020820190508181036000830152611c1181611bd5565b9050919050565b6000604082019050611c2d60008301856117c4565b611c3a6020830184611984565b9392505050565b7f6e6f7420617070726f766564206f722063616e63656c6c656400000000000000600082015250565b6000611c77601983611715565b9150611c8282611c41565b602082019050919050565b60006020820190508181036000830152611ca681611c6a565b9050919050565b6000604082019050611cc26000830185611984565b611ccf6020830184611984565b9392505050565b7f4e487b7100000000000000000000000000000000000000000000000000000000600052601260045260246000fd5b6000611d10826118e7565b9150611d1b836118e7565b925082611d2b57611d2a611cd6565b5b828204905092915050565b6000611d41826118e7565b9150611d4c836118e7565b9250817fffffffffffffffffffffffffffffffffffffffffffffffffffffffffffffffff0483118215151615611d8557611d84611b27565b5b828202905092915050565b6000611d9b826118e7565b9150611da6836118e7565b925082821015611db957611db8611b27565b5b82820390509291505056fea2646970667358221220793dc484d4385819e12c4b1a9c3e5546c54c5194255653d6e56dd28c3173054364736f6c634300080f0033a26469706673582212200df3bfb016c82423476b32349b1099211437688a686d902b2e221049c93d574e64736f6c634300080f0033",
  "linkReferences": {},
  "deployedLinkReferences": {}
}