{
  "_format": "hh-sol-artifact-1",
  "contractName": "Factory",
  "sourceName": "contracts/Escrow.sol",
  "abi": [
    {
      "inputs": [],
      "stateMutability": "nonpayable",
      "type": "constructor"
    },
    {
      "inputs": [
        {
          "internalType": "uint256",
          "name": "",
          "type": "uint256"
        }
      ],
      "name": "allEscrowContracts",
      "outputs": [
        {
          "internalType": "address",
          "name": "",
          "type": "address"
        }
      ],
      "stateMutability": "view",
      "type": "function"
    },
    {
      "inputs": [],
      "name": "createContract",
      "outputs": [],
      "stateMutability": "nonpayable",
      "type": "function"
    },
    {
      "inputs": [],
      "name": "escrowCount",
      "outputs": [
        {
          "internalType": "uint256",
          "name": "",
          "type": "uint256"
        }
      ],
      "stateMutability": "view",
      "type": "function"
    },
    {
      "inputs": [],
      "name": "factoryOwner",
      "outputs": [
        {
          "internalType": "address",
          "name": "",
          "type": "address"
        }
      ],
      "stateMutability": "view",
      "type": "function"
    },
    {
      "inputs": [],
      "name": "getAllContracts",
      "outputs": [
        {
          "internalType": "address[]",
          "name": "",
          "type": "address[]"
        }
      ],
      "stateMutability": "view",
      "type": "function"
    },
    {
      "inputs": [
        {
          "internalType": "uint256",
          "name": "queryID",
          "type": "uint256"
        }
      ],
      "name": "getByID",
      "outputs": [
        {
          "internalType": "address",
          "name": "",
          "type": "address"
        }
      ],
      "stateMutability": "view",
      "type": "function"
    }
  ],
  "bytecode": "0x608060405234801561001057600080fd5b5033600260006101000a81548173ffffffffffffffffffffffffffffffffffffffff021916908373ffffffffffffffffffffffffffffffffffffffff1602179055506000600181905550612608806100696000396000f3fe608060405234801561001057600080fd5b50600436106100625760003560e01c806318d3ce9614610067578063412a5a6d146100855780634273601c1461008f5780634df2c5f5146100ad578063675ac67a146100dd57806374fb0aa7146100fb575b600080fd5b61006f61012b565b60405161007c9190610440565b60405180910390f35b61008d6101b9565b005b610097610291565b6040516100a49190610471565b60405180910390f35b6100c760048036038101906100c291906104c7565b6102b7565b6040516100d49190610471565b60405180910390f35b6100e56102f6565b6040516100f29190610503565b60405180910390f35b610115600480360381019061011091906104c7565b6102fc565b6040516101229190610471565b60405180910390f35b606060008054806020026020016040519081016040528092919081815260200182805480156101af57602002820191906000526020600020905b8160009054906101000a900473ffffffffffffffffffffffffffffffffffffffff1673ffffffffffffffffffffffffffffffffffffffff1681526020019060010190808311610165575b5050505050905090565b6000600260009054906101000a900473ffffffffffffffffffffffffffffffffffffffff16600160008154809291906101f19061054d565b9190505560405161020190610343565b61020c929190610595565b604051809103906000f080158015610228573d6000803e3d6000fd5b5090506000819080600181540180825580915050600190039060005260206000200160009091909190916101000a81548173ffffffffffffffffffffffffffffffffffffffff021916908373ffffffffffffffffffffffffffffffffffffffff16021790555050565b600260009054906101000a900473ffffffffffffffffffffffffffffffffffffffff1681565b600081815481106102c757600080fd5b906000526020600020016000915054906101000a900473ffffffffffffffffffffffffffffffffffffffff1681565b60015481565b6000808281548110610311576103106105be565b5b9060005260206000200160009054906101000a900473ffffffffffffffffffffffffffffffffffffffff169050919050565b611fe5806105ee83390190565b600081519050919050565b600082825260208201905092915050565b6000819050602082019050919050565b600073ffffffffffffffffffffffffffffffffffffffff82169050919050565b60006103a78261037c565b9050919050565b6103b78161039c565b82525050565b60006103c983836103ae565b60208301905092915050565b6000602082019050919050565b60006103ed82610350565b6103f7818561035b565b93506104028361036c565b8060005b8381101561043357815161041a88826103bd565b9750610425836103d5565b925050600181019050610406565b5085935050505092915050565b6000602082019050818103600083015261045a81846103e2565b905092915050565b61046b8161039c565b82525050565b60006020820190506104866000830184610462565b92915050565b600080fd5b6000819050919050565b6104a481610491565b81146104af57600080fd5b50565b6000813590506104c18161049b565b92915050565b6000602082840312156104dd576104dc61048c565b5b60006104eb848285016104b2565b91505092915050565b6104fd81610491565b82525050565b600060208201905061051860008301846104f4565b92915050565b7f4e487b7100000000000000000000000000000000000000000000000000000000600052601160045260246000fd5b600061055882610491565b91507fffffffffffffffffffffffffffffffffffffffffffffffffffffffffffffffff820361058a5761058961051e565b5b600182019050919050565b60006040820190506105aa6000830185610462565b6105b760208301846104f4565b9392505050565b7f4e487b7100000000000000000000000000000000000000000000000000000000600052603260045260246000fdfe60806040526000600c60006101000a81548160ff021916908360058111156200002d576200002c620000bd565b5b02179055503480156200003f57600080fd5b5060405162001fe538038062001fe5833981810160405281019062000065919062000191565b81600360006101000a81548173ffffffffffffffffffffffffffffffffffffffff021916908373ffffffffffffffffffffffffffffffffffffffff1602179055508060068190555060006007819055505050620001d8565b7f4e487b7100000000000000000000000000000000000000000000000000000000600052602160045260246000fd5b600080fd5b600073ffffffffffffffffffffffffffffffffffffffff82169050919050565b60006200011e82620000f1565b9050919050565b620001308162000111565b81146200013c57600080fd5b50565b600081519050620001508162000125565b92915050565b6000819050919050565b6200016b8162000156565b81146200017757600080fd5b50565b6000815190506200018b8162000160565b92915050565b60008060408385031215620001ab57620001aa620000ec565b5b6000620001bb858286016200013f565b9250506020620001ce858286016200017a565b9150509250929050565b611dfd80620001e86000396000f3fe6080604052600436106101f25760003560e01c80639529387c1161010d578063d45b0007116100a0578063e3c9236d1161006f578063e3c9236d146106f8578063e9d13b5714610723578063f73a3d1f1461074e578063f973822e14610779578063fe74edbd146107a45761028c565b8063d45b000714610674578063d55a17c01461068b578063daef173f146106b6578063e1e417c4146106cd5761028c565b8063bc49308f116100dc578063bc49308f146105c8578063bcade28d146105f3578063bf5c98221461061e578063d3f3f5ea146106495761028c565b80639529387c1461051e578063a9e1691314610535578063b02c43d014610560578063b44c991c1461059d5761028c565b806347b2c736116101855780637150d8ae116101545780637150d8ae14610472578063788d6b911461049d5780637fd6f15c146104c8578063904eee23146104f35761028c565b806347b2c736146103c657806357e871e7146103f1578063674759e91461041c57806369e15404146104475761028c565b8063260ace31116101c1578063260ace311461033d5780633eb5241d1461036657806342cbb15c14610370578063431702561461039b5761028c565b806308551a53146102915780630a1792cc146102bc578063183f66b6146102e75780631b670191146103125761028c565b3661028c57600260009054906101000a900473ffffffffffffffffffffffffffffffffffffffff1673ffffffffffffffffffffffffffffffffffffffff163373ffffffffffffffffffffffffffffffffffffffff1614610287576040517f08c379a000000000000000000000000000000000000000000000000000000000815260040161027e90611775565b60405180910390fd5b600080fd5b600080fd5b34801561029d57600080fd5b506102a66107cf565b6040516102b391906117d6565b60405180910390f35b3480156102c857600080fd5b506102d16107f5565b6040516102de919061180c565b60405180910390f35b3480156102f357600080fd5b506102fc610808565b604051610309919061180c565b60405180910390f35b34801561031e57600080fd5b5061032761081b565b604051610334919061189e565b60405180910390f35b34801561034957600080fd5b50610364600480360381019061035f9190611920565b61082e565b005b61036e610ad6565b005b34801561037c57600080fd5b50610385610d22565b6040516103929190611996565b60405180910390f35b3480156103a757600080fd5b506103b0610d2a565b6040516103bd91906117d6565b60405180910390f35b3480156103d257600080fd5b506103db610d32565b6040516103e89190611996565b60405180910390f35b3480156103fd57600080fd5b50610406610d38565b6040516104139190611996565b60405180910390f35b34801561042857600080fd5b50610431610d3e565b60405161043e9190611996565b60405180910390f35b34801561045357600080fd5b5061045c610d44565b6040516104699190611996565b60405180910390f35b34801561047e57600080fd5b50610487610d4a565b60405161049491906117d6565b60405180910390f35b3480156104a957600080fd5b506104b2610d70565b6040516104bf9190611996565b60405180910390f35b3480156104d457600080fd5b506104dd610d7a565b6040516104ea9190611996565b60405180910390f35b3480156104ff57600080fd5b50610508610d80565b604051610515919061180c565b60405180910390f35b34801561052a57600080fd5b50610533610da8565b005b34801561054157600080fd5b5061054a610ef5565b604051610557919061180c565b60405180910390f35b34801561056c57600080fd5b50610587600480360381019061058291906119b1565b610f1d565b6040516105949190611996565b60405180910390f35b3480156105a957600080fd5b506105b2610f41565b6040516105bf9190611996565b60405180910390f35b3480156105d457600080fd5b506105dd610f4b565b6040516105ea9190611996565b60405180910390f35b3480156105ff57600080fd5b50610608610f51565b604051610615919061180c565b60405180910390f35b34801561062a57600080fd5b50610633610f79565b6040516106409190611996565b60405180910390f35b34801561065557600080fd5b5061065e610f83565b60405161066b9190611a9c565b60405180910390f35b34801561068057600080fd5b50610689610fdb565b005b34801561069757600080fd5b506106a0611169565b6040516106ad919061180c565b60405180910390f35b3480156106c257600080fd5b506106cb61117c565b005b3480156106d957600080fd5b506106e2611307565b6040516106ef91906117d6565b60405180910390f35b34801561070457600080fd5b5061070d61132d565b60405161071a919061180c565b60405180910390f35b34801561072f57600080fd5b5061073861134a565b604051610745919061180c565b60405180910390f35b34801561075a57600080fd5b5061076361135d565b604051610770919061180c565b60405180910390f35b34801561078557600080fd5b5061078e611385565b60405161079b919061189e565b60405180910390f35b3480156107b057600080fd5b506107b961139c565b6040516107c69190611996565b60405180910390f35b600160009054906101000a900473ffffffffffffffffffffffffffffffffffffffff1681565b600860019054906101000a900460ff1681565b600860009054906101000a900460ff1681565b600c60009054906101000a900460ff1681565b600360009054906101000a900473ffffffffffffffffffffffffffffffffffffffff1673ffffffffffffffffffffffffffffffffffffffff163373ffffffffffffffffffffffffffffffffffffffff16146108be576040517f08c379a00000000000000000000000000000000000000000000000000000000081526004016108b590611b0a565b60405180910390fd5b3373ffffffffffffffffffffffffffffffffffffffff168473ffffffffffffffffffffffffffffffffffffffff161415801561092657503373ffffffffffffffffffffffffffffffffffffffff168373ffffffffffffffffffffffffffffffffffffffff1614155b61092f57600080fd5b6001600660008282546109429190611b59565b9250508190555083600160006101000a81548173ffffffffffffffffffffffffffffffffffffffff021916908373ffffffffffffffffffffffffffffffffffffffff16021790555082600260006101000a81548173ffffffffffffffffffffffffffffffffffffffff021916908373ffffffffffffffffffffffffffffffffffffffff16021790555081600581905550806004819055506001600c60006101000a81548160ff021916908360058111156109ff576109fe611827565b5b02179055506000806000600160009054906101000a900473ffffffffffffffffffffffffffffffffffffffff1673ffffffffffffffffffffffffffffffffffffffff1673ffffffffffffffffffffffffffffffffffffffff168152602001908152602001600020819055506000806000600260009054906101000a900473ffffffffffffffffffffffffffffffffffffffff1673ffffffffffffffffffffffffffffffffffffffff1673ffffffffffffffffffffffffffffffffffffffff1681526020019081526020016000208190555050505050565b4360045411610b1a576040517f08c379a0000000000000000000000000000000000000000000000000000000008152600401610b1190611bfb565b60405180910390fd5b600260009054906101000a900473ffffffffffffffffffffffffffffffffffffffff1673ffffffffffffffffffffffffffffffffffffffff163373ffffffffffffffffffffffffffffffffffffffff1614610baa576040517f08c379a0000000000000000000000000000000000000000000000000000000008152600401610ba190611775565b60405180910390fd5b34600080600260009054906101000a900473ffffffffffffffffffffffffffffffffffffffff1673ffffffffffffffffffffffffffffffffffffffff1673ffffffffffffffffffffffffffffffffffffffff16815260200190815260200160002054610c169190611b59565b600080600260009054906101000a900473ffffffffffffffffffffffffffffffffffffffff1673ffffffffffffffffffffffffffffffffffffffff1673ffffffffffffffffffffffffffffffffffffffff1681526020019081526020016000208190555060093490806001815401808255809150506001900390600052602060002001600090919091909150553460076000828254610cb59190611b59565b925050819055506002600c60006101000a81548160ff02191690836005811115610ce257610ce1611827565b5b02179055507fe1fffcc4923d04b559f4d29a8bfc6cda04eb5b0d3c460751c2402c5c5cc9109c3334604051610d18929190611c1b565b60405180910390a1565b600043905090565b600030905090565b600b5481565b60045481565b60075481565b600a5481565b600260009054906101000a900473ffffffffffffffffffffffffffffffffffffffff1681565b6000600654905090565b60055481565b6000600860029054906101000a900460ff1615610da05760019050610da5565b600090505b90565b60036005811115610dbc57610dbb611827565b5b600c60009054906101000a900460ff166005811115610dde57610ddd611827565b5b1480610e1c5750600580811115610df857610df7611827565b5b600c60009054906101000a900460ff166005811115610e1a57610e19611827565b5b145b610e5b576040517f08c379a0000000000000000000000000000000000000000000000000000000008152600401610e5290611c90565b60405180910390fd5b600360009054906101000a900473ffffffffffffffffffffffffffffffffffffffff1673ffffffffffffffffffffffffffffffffffffffff163373ffffffffffffffffffffffffffffffffffffffff1614610eeb576040517f08c379a0000000000000000000000000000000000000000000000000000000008152600401610ee290611b0a565b60405180910390fd5b610ef36113a4565b565b6000600860039054906101000a900460ff1615610f155760019050610f1a565b600090505b90565b60098181548110610f2d57600080fd5b906000526020600020016000915090505481565b6000600b54905090565b60065481565b6000600860019054906101000a900460ff1615610f715760019050610f76565b600090505b90565b6000600a54905090565b60606009805480602002602001604051908101604052809291908181526020018280548015610fd157602002820191906000526020600020905b815481526020019060010190808311610fbd575b5050505050905090565b436004541161101f576040517f08c379a000000000000000000000000000000000000000000000000000000000815260040161101690611bfb565b60405180910390fd5b600160009054906101000a900473ffffffffffffffffffffffffffffffffffffffff1673ffffffffffffffffffffffffffffffffffffffff163373ffffffffffffffffffffffffffffffffffffffff1603611094576001600860026101000a81548160ff021916908315150217905550611106565b600260009054906101000a900473ffffffffffffffffffffffffffffffffffffffff1673ffffffffffffffffffffffffffffffffffffffff163373ffffffffffffffffffffffffffffffffffffffff1603611105576001600860036101000a81548160ff0219169083151502179055505b5b600860029054906101000a900460ff16801561112e5750600860039054906101000a900460ff165b15611167576005600c60006101000a81548160ff0219169083600581111561115957611158611827565b5b02179055506111666113df565b5b565b600860029054906101000a900460ff1681565b600160009054906101000a900473ffffffffffffffffffffffffffffffffffffffff1673ffffffffffffffffffffffffffffffffffffffff163373ffffffffffffffffffffffffffffffffffffffff16036111f1576001600860006101000a81548160ff021916908315150217905550611263565b600260009054906101000a900473ffffffffffffffffffffffffffffffffffffffff1673ffffffffffffffffffffffffffffffffffffffff163373ffffffffffffffffffffffffffffffffffffffff1603611262576001600860016101000a81548160ff0219169083151502179055505b5b600860009054906101000a900460ff16801561128b5750600860019054906101000a900460ff165b15611305576003600c60006101000a81548160ff021916908360058111156112b6576112b5611827565b5b02179055506112c361144a565b6112cb6114db565b7fe45e63303e8639704d39bc5471f075dcad871f77f93d978e3393e58cfdd5d98943476040516112fc929190611cb0565b60405180910390a15b565b600360009054906101000a900473ffffffffffffffffffffffffffffffffffffffff1681565b60004360045411156113425760009050611347565b600190505b90565b600860039054906101000a900460ff1681565b6000600860009054906101000a900460ff161561137d5760019050611382565b600090505b90565b6000600c60009054906101000a900460ff16905090565b600047905090565b600360009054906101000a900473ffffffffffffffffffffffffffffffffffffffff1673ffffffffffffffffffffffffffffffffffffffff16ff5b600260009054906101000a900473ffffffffffffffffffffffffffffffffffffffff1673ffffffffffffffffffffffffffffffffffffffff166108fc479081150290604051600060405180830381858888f19350505050158015611447573d6000803e3d6000fd5b50565b6000606460055461145b9190611d08565b476114669190611d39565b905080600a81905550600360009054906101000a900473ffffffffffffffffffffffffffffffffffffffff1673ffffffffffffffffffffffffffffffffffffffff166108fc829081150290604051600060405180830381858888f193505050501580156114d7573d6000803e3d6000fd5b5050565b47600080600260009054906101000a900473ffffffffffffffffffffffffffffffffffffffff1673ffffffffffffffffffffffffffffffffffffffff1673ffffffffffffffffffffffffffffffffffffffff168152602001908152602001600020546115479190611d93565b600080600260009054906101000a900473ffffffffffffffffffffffffffffffffffffffff1673ffffffffffffffffffffffffffffffffffffffff1673ffffffffffffffffffffffffffffffffffffffff1681526020019081526020016000208190555047600080600160009054906101000a900473ffffffffffffffffffffffffffffffffffffffff1673ffffffffffffffffffffffffffffffffffffffff1673ffffffffffffffffffffffffffffffffffffffff168152602001908152602001600020546116179190611b59565b600080600160009054906101000a900473ffffffffffffffffffffffffffffffffffffffff1673ffffffffffffffffffffffffffffffffffffffff1673ffffffffffffffffffffffffffffffffffffffff168152602001908152602001600020819055506004600c60006101000a81548160ff021916908360058111156116a1576116a0611827565b5b021790555047600b81905550600160009054906101000a900473ffffffffffffffffffffffffffffffffffffffff1673ffffffffffffffffffffffffffffffffffffffff166108fc479081150290604051600060405180830381858888f19350505050158015611715573d6000803e3d6000fd5b50565b600082825260208201905092915050565b7f6f6e6c7920627579657200000000000000000000000000000000000000000000600082015250565b600061175f600a83611718565b915061176a82611729565b602082019050919050565b6000602082019050818103600083015261178e81611752565b9050919050565b600073ffffffffffffffffffffffffffffffffffffffff82169050919050565b60006117c082611795565b9050919050565b6117d0816117b5565b82525050565b60006020820190506117eb60008301846117c7565b92915050565b60008115159050919050565b611806816117f1565b82525050565b600060208201905061182160008301846117fd565b92915050565b7f4e487b7100000000000000000000000000000000000000000000000000000000600052602160045260246000fd5b6006811061186757611866611827565b5b50565b600081905061187882611856565b919050565b60006118888261186a565b9050919050565b6118988161187d565b82525050565b60006020820190506118b3600083018461188f565b92915050565b600080fd5b6118c7816117b5565b81146118d257600080fd5b50565b6000813590506118e4816118be565b92915050565b6000819050919050565b6118fd816118ea565b811461190857600080fd5b50565b60008135905061191a816118f4565b92915050565b6000806000806080858703121561193a576119396118b9565b5b6000611948878288016118d5565b9450506020611959878288016118d5565b935050604061196a8782880161190b565b925050606061197b8782880161190b565b91505092959194509250565b611990816118ea565b82525050565b60006020820190506119ab6000830184611987565b92915050565b6000602082840312156119c7576119c66118b9565b5b60006119d58482850161190b565b91505092915050565b600081519050919050565b600082825260208201905092915050565b6000819050602082019050919050565b611a13816118ea565b82525050565b6000611a258383611a0a565b60208301905092915050565b6000602082019050919050565b6000611a49826119de565b611a5381856119e9565b9350611a5e836119fa565b8060005b83811015611a8f578151611a768882611a19565b9750611a8183611a31565b925050600181019050611a62565b5085935050505092915050565b60006020820190508181036000830152611ab68184611a3e565b905092915050565b7f6f6e6c7920657363726f77206f776e6572000000000000000000000000000000600082015250565b6000611af4601183611718565b9150611aff82611abe565b602082019050919050565b60006020820190508181036000830152611b2381611ae7565b9050919050565b7f4e487b7100000000000000000000000000000000000000000000000000000000600052601160045260246000fd5b6000611b64826118ea565b9150611b6f836118ea565b9250827fffffffffffffffffffffffffffffffffffffffffffffffffffffffffffffffff03821115611ba457611ba3611b2a565b5b828201905092915050565b7f657363726f772074696d652068617320656e6465640000000000000000000000600082015250565b6000611be5601583611718565b9150611bf082611baf565b602082019050919050565b60006020820190508181036000830152611c1481611bd8565b9050919050565b6000604082019050611c3060008301856117c7565b611c3d6020830184611987565b9392505050565b7f6e6f7420617070726f766564206f722063616e63656c6c656400000000000000600082015250565b6000611c7a601983611718565b9150611c8582611c44565b602082019050919050565b60006020820190508181036000830152611ca981611c6d565b9050919050565b6000604082019050611cc56000830185611987565b611cd26020830184611987565b9392505050565b7f4e487b7100000000000000000000000000000000000000000000000000000000600052601260045260246000fd5b6000611d13826118ea565b9150611d1e836118ea565b925082611d2e57611d2d611cd9565b5b828204905092915050565b6000611d44826118ea565b9150611d4f836118ea565b9250817fffffffffffffffffffffffffffffffffffffffffffffffffffffffffffffffff0483118215151615611d8857611d87611b2a565b5b828202905092915050565b6000611d9e826118ea565b9150611da9836118ea565b925082821015611dbc57611dbb611b2a565b5b82820390509291505056fea26469706673582212203a1d040ddee95fe7d771f34cb91990eaa22ee9bf9839ebe1c1e88d0845ff991a64736f6c634300080f0033a264697066735822122005fc8bd786d4f956f857c45573ce5392f9db6f145ddab9d251fa2e8b3efbeb2064736f6c634300080f0033",
  "linkReferences": {},
  "deployedLinkReferences": {}
}